{
  "contractName": "ProposalFactory",
  "abi": [
    {
      "inputs": [
        {
          "internalType": "uint256",
          "name": "",
          "type": "uint256"
        }
      ],
      "name": "deployedProposals",
      "outputs": [
        {
          "internalType": "address",
          "name": "",
          "type": "address"
        }
      ],
      "stateMutability": "view",
      "type": "function",
      "constant": true
    },
    {
      "inputs": [
        {
          "internalType": "address",
          "name": "admin",
          "type": "address"
        },
        {
          "internalType": "address",
          "name": "proposer",
          "type": "address"
        },
        {
          "internalType": "address[]",
          "name": "tokens",
          "type": "address[]"
        },
        {
          "internalType": "uint256[]",
          "name": "amounts",
          "type": "uint256[]"
        },
        {
          "internalType": "uint256",
          "name": "startDate",
          "type": "uint256"
        },
        {
          "internalType": "uint256",
          "name": "endDate",
          "type": "uint256"
        },
        {
          "internalType": "uint256",
          "name": "period",
          "type": "uint256"
        },
        {
          "internalType": "uint256",
          "name": "optionPrice",
          "type": "uint256"
        },
        {
          "internalType": "uint256",
          "name": "optionPremium",
          "type": "uint256"
        },
        {
          "internalType": "uint256",
          "name": "optionInterval",
          "type": "uint256"
        },
        {
          "internalType": "uint256",
          "name": "poolPeriod",
          "type": "uint256"
        }
      ],
      "name": "createProposal",
      "outputs": [],
      "stateMutability": "nonpayable",
      "type": "function"
    },
    {
      "inputs": [],
      "name": "getDeployedProposals",
      "outputs": [
        {
          "internalType": "address[]",
          "name": "",
          "type": "address[]"
        }
      ],
      "stateMutability": "view",
      "type": "function",
      "constant": true
    }
  ],
  "bytecode": "0x608060405234801561001057600080fd5b506123ed806100206000396000f3fe608060405234801561001057600080fd5b50600436106100415760003560e01c80638a7db2d2146100465780639980ee31146100a5578063b88504fd14610278575b600080fd5b61004e6102d0565b6040518080602001828103825283818151815260200191508051906020019060200280838360005b83811015610091578082015181840152602081019050610076565b505050509050019250505060405180910390f35b61027660048036036101608110156100bc57600080fd5b81019080803573ffffffffffffffffffffffffffffffffffffffff169060200190929190803573ffffffffffffffffffffffffffffffffffffffff1690602001909291908035906020019064010000000081111561011957600080fd5b82018360208201111561012b57600080fd5b8035906020019184602083028401116401000000008311171561014d57600080fd5b919080806020026020016040519081016040528093929190818152602001838360200280828437600081840152601f19601f820116905080830192505050505050509192919290803590602001906401000000008111156101ad57600080fd5b8201836020820111156101bf57600080fd5b803590602001918460208302840111640100000000831117156101e157600080fd5b919080806020026020016040519081016040528093929190818152602001838360200280828437600081840152601f19601f8201169050808301925050505050505091929192908035906020019092919080359060200190929190803590602001909291908035906020019092919080359060200190929190803590602001909291908035906020019092919050505061035e565b005b6102a46004803603602081101561028e57600080fd5b8101908080359060200190929190505050610505565b604051808273ffffffffffffffffffffffffffffffffffffffff16815260200191505060405180910390f35b6060600080548060200260200160405190810160405280929190818152602001828054801561035457602002820191906000526020600020905b8160009054906101000a900473ffffffffffffffffffffffffffffffffffffffff1673ffffffffffffffffffffffffffffffffffffffff168152602001906001019080831161030a575b5050505050905090565b60008b8b8b8b8b8b8b8b8b8b8b60405161037790610541565b808c73ffffffffffffffffffffffffffffffffffffffff1681526020018b73ffffffffffffffffffffffffffffffffffffffff16815260200180602001806020018a815260200189815260200188815260200187815260200186815260200185815260200184815260200183810383528c818151815260200191508051906020019060200280838360005b8381101561041d578082015181840152602081019050610402565b5050505090500183810382528b818151815260200191508051906020019060200280838360005b8381101561045f578082015181840152602081019050610444565b505050509050019d5050505050505050505050505050604051809103906000f080158015610491573d6000803e3d6000fd5b5090506000819080600181540180825580915050600190039060005260206000200160009091909190916101000a81548173ffffffffffffffffffffffffffffffffffffffff021916908373ffffffffffffffffffffffffffffffffffffffff160217905550505050505050505050505050565b6000818154811061051257fe5b906000526020600020016000915054906101000a900473ffffffffffffffffffffffffffffffffffffffff1681565b611e698061054f8339019056fe60806040526001600f60006101000a81548160ff0219169083151502179055503480156200002c57600080fd5b5060405162001e6938038062001e6983398181016040526101608110156200005357600080fd5b810190808051906020019092919080519060200190929190805160405193929190846401000000008211156200008857600080fd5b838201915060208201858111156200009f57600080fd5b8251866020820283011164010000000082111715620000bd57600080fd5b8083526020830192505050908051906020019060200280838360005b83811015620000f6578082015181840152602081019050620000d9565b50505050905001604052602001805160405193929190846401000000008211156200012057600080fd5b838201915060208201858111156200013757600080fd5b82518660208202830111640100000000821117156200015557600080fd5b8083526020830192505050908051906020019060200280838360005b838110156200018e57808201518184015260208101905062000171565b50505050905001604052602001805190602001909291908051906020019092919080519060200190929190805190602001909291908051906020019092919080519060200190929190805190602001909291905050508a6000806101000a81548173ffffffffffffffffffffffffffffffffffffffff021916908373ffffffffffffffffffffffffffffffffffffffff16021790555089600460006101000a81548173ffffffffffffffffffffffffffffffffffffffff021916908373ffffffffffffffffffffffffffffffffffffffff16021790555088600290805190602001906200027d929190620003d8565b5087600890805190602001906200029692919062000467565b508660098190555085600a8190555084600b8190555083600c8190555082600d8190555081600e819055508060078190555060005b8951811015620003c65760038a8281518110620002e457fe5b60200260200101519080600181540180825580915050600190039060005260206000200160009091909190916101000a81548173ffffffffffffffffffffffffffffffffffffffff021916908373ffffffffffffffffffffffffffffffffffffffff1602179055508881815181106200035957fe5b6020026020010151601160008c84815181106200037257fe5b602002602001015173ffffffffffffffffffffffffffffffffffffffff1673ffffffffffffffffffffffffffffffffffffffff168152602001908152602001600020819055508080600101915050620002cb565b505050505050505050505050620004d8565b82805482825590600052602060002090810192821562000454579160200282015b82811115620004535782518260006101000a81548173ffffffffffffffffffffffffffffffffffffffff021916908373ffffffffffffffffffffffffffffffffffffffff16021790555091602001919060010190620003f9565b5b509050620004639190620004b9565b5090565b828054828255906000526020600020908101928215620004a6579160200282015b82811115620004a557825182559160200191906001019062000488565b5b509050620004b59190620004b9565b5090565b5b80821115620004d4576000816000905550600101620004ba565b5090565b61198180620004e86000396000f3fe608060405234801561001057600080fd5b50600436106101215760003560e01c8063888ed72f116100ad578063b135648811610071578063b13564881461038d578063b1b0be2f146103ab578063c00baf60146103cb578063e9790d0214610517578063f648b99e1461054b57610121565b8063888ed72f1461028e57806390807807146102ac578063a6693590146102b6578063a8e4fb90146102fa578063aa6ca8081461032e57610121565b80635aa68ac0116100f45780635aa68ac0146101cb5780635f21d4f11461022a5780635fe786c11461024857806367d6cbc21461026657806378f305c61461027057610121565b80631ed24195146101265780633d370b4e1461014457806349bc856d146101a3578063529663db146101c1575b600080fd5b61012e610555565b6040518082815260200191505060405180910390f35b61014c61055f565b6040518080602001828103825283818151815260200191508051906020019060200280838360005b8381101561018f578082015181840152602081019050610174565b505050509050019250505060405180910390f35b6101ab6105b7565b6040518082815260200191505060405180910390f35b6101c96105c1565b005b6101d361085c565b6040518080602001828103825283818151815260200191508051906020019060200280838360005b838110156102165780820151818401526020810190506101fb565b505050509050019250505060405180910390f35b6102326108ea565b6040518082815260200191505060405180910390f35b6102506108f4565b6040518082815260200191505060405180910390f35b61026e6108fe565b005b610278610bf0565b6040518082815260200191505060405180910390f35b610296610bfa565b6040518082815260200191505060405180910390f35b6102b4610c04565b005b6102f8600480360360208110156102cc57600080fd5b81019080803573ffffffffffffffffffffffffffffffffffffffff169060200190929190505050610ec5565b005b610302610f09565b604051808273ffffffffffffffffffffffffffffffffffffffff16815260200191505060405180910390f35b610336610f2f565b6040518080602001828103825283818151815260200191508051906020019060200280838360005b8381101561037957808201518184015260208101905061035e565b505050509050019250505060405180910390f35b610395610fbd565b6040518082815260200191505060405180910390f35b6103b3610fc7565b60405180821515815260200191505060405180910390f35b610515600480360360408110156103e157600080fd5b81019080803590602001906401000000008111156103fe57600080fd5b82018360208201111561041057600080fd5b8035906020019184602083028401116401000000008311171561043257600080fd5b919080806020026020016040519081016040528093929190818152602001838360200280828437600081840152601f19601f8201169050808301925050505050505091929192908035906020019064010000000081111561049257600080fd5b8201836020820111156104a457600080fd5b803590602001918460208302840111640100000000831117156104c657600080fd5b919080806020026020016040519081016040528093929190818152602001838360200280828437600081840152601f19601f820116905080830192505050505050509192919290505050610fde565b005b61051f611574565b604051808273ffffffffffffffffffffffffffffffffffffffff16815260200191505060405180910390f35b61055361159e565b005b6000600b54905090565b606060088054806020026020016040519081016040528092919081815260200182805480156105ad57602002820191906000526020600020905b815481526020019060010190808311610599575b5050505050905090565b6000600e54905090565b6000601660003373ffffffffffffffffffffffffffffffffffffffff1673ffffffffffffffffffffffffffffffffffffffff168152602001908152602001600020541161060d57600080fd5b60006018603c80600e5402020290506000600a5442039050600082828161063057fe5b0490506000601660003373ffffffffffffffffffffffffffffffffffffffff1673ffffffffffffffffffffffffffffffffffffffff16815260200190815260200160002054600d5483020290506000601760003373ffffffffffffffffffffffffffffffffffffffff1673ffffffffffffffffffffffffffffffffffffffff168152602001908152602001600020548203905060008111610739576040517f08c379a00000000000000000000000000000000000000000000000000000000081526004018080602001828103825260108152602001807f4e6f7468696e6720746f20636c61696d0000000000000000000000000000000081525060200191505060405180910390fd5b600160009054906101000a900473ffffffffffffffffffffffffffffffffffffffff1673ffffffffffffffffffffffffffffffffffffffff1663a9059cbb33836040518363ffffffff1660e01b8152600401808373ffffffffffffffffffffffffffffffffffffffff16815260200182815260200192505050602060405180830381600087803b1580156107cc57600080fd5b505af11580156107e0573d6000803e3d6000fd5b505050506040513d60208110156107f657600080fd5b81019080805190602001909291905050505080601760003373ffffffffffffffffffffffffffffffffffffffff1673ffffffffffffffffffffffffffffffffffffffff168152602001908152602001600020600082825401925050819055505050505050565b606060058054806020026020016040519081016040528092919081815260200182805480156108e057602002820191906000526020600020905b8160009054906101000a900473ffffffffffffffffffffffffffffffffffffffff1673ffffffffffffffffffffffffffffffffffffffff1681526020019060010190808311610896575b5050505050905090565b6000600c54905090565b6000600d54905090565b600c54600160009054906101000a900473ffffffffffffffffffffffffffffffffffffffff1673ffffffffffffffffffffffffffffffffffffffff166370a08231336040518263ffffffff1660e01b8152600401808273ffffffffffffffffffffffffffffffffffffffff16815260200191505060206040518083038186803b15801561098a57600080fd5b505afa15801561099e573d6000803e3d6000fd5b505050506040513d60208110156109b457600080fd5b81019080805190602001909291905050501015610a39576040517f08c379a00000000000000000000000000000000000000000000000000000000081526004018080602001828103825260138152602001807f4c61636b206f66204441492062616c616e63650000000000000000000000000081525060200191505060405180910390fd5b600160009054906101000a900473ffffffffffffffffffffffffffffffffffffffff1673ffffffffffffffffffffffffffffffffffffffff166323b872dd3330600c546040518463ffffffff1660e01b8152600401808473ffffffffffffffffffffffffffffffffffffffff1681526020018373ffffffffffffffffffffffffffffffffffffffff1681526020018281526020019350505050602060405180830381600087803b158015610aec57600080fd5b505af1158015610b00573d6000803e3d6000fd5b505050506040513d6020811015610b1657600080fd5b810190808051906020019092919050505050600c54601560008282540192505081905550601554600c5481610b4757fe5b04601660003373ffffffffffffffffffffffffffffffffffffffff1673ffffffffffffffffffffffffffffffffffffffff168152602001908152602001600020819055506010339080600181540180825580915050600190039060005260206000200160009091909190916101000a81548173ffffffffffffffffffffffffffffffffffffffff021916908373ffffffffffffffffffffffffffffffffffffffff160217905550565b6000600954905090565b6000600754905090565b60008054906101000a900473ffffffffffffffffffffffffffffffffffffffff1673ffffffffffffffffffffffffffffffffffffffff163373ffffffffffffffffffffffffffffffffffffffff1614610ca8576040517f08c379a000000000000000000000000000000000000000000000000000000000815260040180806020018281038252602a815260200180611922602a913960400191505060405180910390fd5b60005b600580549050811015610ea75760006013600060058481548110610ccb57fe5b9060005260206000200160009054906101000a900473ffffffffffffffffffffffffffffffffffffffff1673ffffffffffffffffffffffffffffffffffffffff1673ffffffffffffffffffffffffffffffffffffffff168152602001908152602001600020905060005b8180549050811015610e98576000828281548110610d4f57fe5b906000526020600020906002020160000160009054906101000a900473ffffffffffffffffffffffffffffffffffffffff1690506000838381548110610d9157fe5b90600052602060002090600202016001015490508173ffffffffffffffffffffffffffffffffffffffff1663a9059cbb60058781548110610dce57fe5b9060005260206000200160009054906101000a900473ffffffffffffffffffffffffffffffffffffffff16836040518363ffffffff1660e01b8152600401808373ffffffffffffffffffffffffffffffffffffffff16815260200182815260200192505050602060405180830381600087803b158015610e4d57600080fd5b505af1158015610e61573d6000803e3d6000fd5b505050506040513d6020811015610e7757600080fd5b81019080805190602001909291905050505050508080600101915050610d35565b50508080600101915050610cab565b506000600f60006101000a81548160ff021916908315150217905550565b80600160006101000a81548173ffffffffffffffffffffffffffffffffffffffff021916908373ffffffffffffffffffffffffffffffffffffffff16021790555050565b600460009054906101000a900473ffffffffffffffffffffffffffffffffffffffff1681565b60606002805480602002602001604051908101604052809291908181526020018280548015610fb357602002820191906000526020600020905b8160009054906101000a900473ffffffffffffffffffffffffffffffffffffffff1673ffffffffffffffffffffffffffffffffffffffff1681526020019060010190808311610f69575b5050505050905090565b6000600a54905090565b6000600f60009054906101000a900460ff16905090565b600f60009054906101000a900460ff16611043576040517f08c379a00000000000000000000000000000000000000000000000000000000081526004018080602001828103825260238152602001806118ff6023913960400191505060405180910390fd5b600a5442106110ba576040517f08c379a000000000000000000000000000000000000000000000000000000000815260040180806020018281038252601f8152602001807f5468652070726f706f73616c20697320616c726561647920657870697265640081525060200191505060405180910390fd5b6011600060036000815481106110cc57fe5b9060005260206000200160009054906101000a900473ffffffffffffffffffffffffffffffffffffffff1673ffffffffffffffffffffffffffffffffffffffff1673ffffffffffffffffffffffffffffffffffffffff1681526020019081526020016000205460126000600360008154811061114457fe5b9060005260206000200160009054906101000a900473ffffffffffffffffffffffffffffffffffffffff1673ffffffffffffffffffffffffffffffffffffffff1673ffffffffffffffffffffffffffffffffffffffff168152602001908152602001600020541061121d576040517f08c379a00000000000000000000000000000000000000000000000000000000081526004018080602001828103825260118152602001807f4974277320616c72656164792066756c6c00000000000000000000000000000081525060200191505060405180910390fd5b60005b825181101561144857600083828151811061123757fe5b60200260200101519050600083838151811061124f57fe5b602002602001015190508173ffffffffffffffffffffffffffffffffffffffff1663095ea7b330836040518363ffffffff1660e01b8152600401808373ffffffffffffffffffffffffffffffffffffffff16815260200182815260200192505050602060405180830381600087803b1580156112ca57600080fd5b505af11580156112de573d6000803e3d6000fd5b505050506040513d60208110156112f457600080fd5b810190808051906020019092919050505050601360003373ffffffffffffffffffffffffffffffffffffffff1673ffffffffffffffffffffffffffffffffffffffff16815260200190815260200160002060405180604001604052808473ffffffffffffffffffffffffffffffffffffffff16815260200183815250908060018154018082558091505060019003906000526020600020906002020160009091909190915060008201518160000160006101000a81548173ffffffffffffffffffffffffffffffffffffffff021916908373ffffffffffffffffffffffffffffffffffffffff16021790555060208201518160010155505080601260008473ffffffffffffffffffffffffffffffffffffffff1673ffffffffffffffffffffffffffffffffffffffff1681526020019081526020016000206000828254019250508190555050508080600101915050611220565b50600860008154811061145757fe5b906000526020600020015460126000600360008154811061147457fe5b9060005260206000200160009054906101000a900473ffffffffffffffffffffffffffffffffffffffff1673ffffffffffffffffffffffffffffffffffffffff1673ffffffffffffffffffffffffffffffffffffffff16815260200190815260200160002054106114fb576000600f60006101000a81548160ff0219169083151502179055505b6005339080600181540180825580915050600190039060005260206000200160009091909190916101000a81548173ffffffffffffffffffffffffffffffffffffffff021916908373ffffffffffffffffffffffffffffffffffffffff1602179055506006600081548092919060010191905055505050565b6000600460009054906101000a900473ffffffffffffffffffffffffffffffffffffffff16905090565b600460009054906101000a900473ffffffffffffffffffffffffffffffffffffffff1673ffffffffffffffffffffffffffffffffffffffff163373ffffffffffffffffffffffffffffffffffffffff161480611645575060008054906101000a900473ffffffffffffffffffffffffffffffffffffffff1673ffffffffffffffffffffffffffffffffffffffff163373ffffffffffffffffffffffffffffffffffffffff16145b61169a576040517f08c379a00000000000000000000000000000000000000000000000000000000081526004018080602001828103825260298152602001806118d66029913960400191505060405180910390fd5b60005b6005805490508110156118b757600060136000600584815481106116bd57fe5b9060005260206000200160009054906101000a900473ffffffffffffffffffffffffffffffffffffffff1673ffffffffffffffffffffffffffffffffffffffff1673ffffffffffffffffffffffffffffffffffffffff168152602001908152602001600020905060005b81805490508110156118a857600082828154811061174157fe5b906000526020600020906002020160000160009054906101000a900473ffffffffffffffffffffffffffffffffffffffff169050600083838154811061178357fe5b90600052602060002090600202016001015490508173ffffffffffffffffffffffffffffffffffffffff166323b872dd600587815481106117c057fe5b9060005260206000200160009054906101000a900473ffffffffffffffffffffffffffffffffffffffff1630846040518463ffffffff1660e01b8152600401808473ffffffffffffffffffffffffffffffffffffffff1681526020018373ffffffffffffffffffffffffffffffffffffffff1681526020018281526020019350505050602060405180830381600087803b15801561185d57600080fd5b505af1158015611871573d6000803e3d6000fd5b505050506040513d602081101561188757600080fd5b81019080805190602001909291905050505050508080600101915050611727565b5050808060010191505061169d565b506000600f60006101000a81548160ff02191690831515021790555056fe4f6e6c792070726f706f7365722063616e20636c6f736520746865206f70656e2070726f706f73616c54686520706f6f6c2070726f706f73616c20697320616c726561647920636c6f7365644f6e6c792061646d696e2063616e206c697175696461746520746865206f70656e2070726f706f73616ca26469706673582212201d0f1d5f7064c67ecaba46d2594d100b3bb9e95061b94f45bf55551a1fcd0cdb64736f6c63430007030033a26469706673582212208cb4c2f77f1869a9e5d221c64aef4a0ff1db60b294da052e15e19d111769be8f64736f6c63430007030033",
  "immutableReferences": {},
  "source": "pragma solidity ^0.7.3;\n\nimport \"./Proposal.sol\";\nimport \"@openzeppelin/contracts/token/ERC20/IERC20.sol\";\n\n// import \"https://github.com/OpenZeppelin/openzeppelin-contracts/blob/v3.1.0/contracts/token/ERC20/IERC20.sol\";\n\n// Proposal factory creates a new pool proposal by pool proposer\ncontract ProposalFactory {\n    address[] public deployedProposals;\n\n    function createProposal(\n        address admin,\n        address proposer,\n        address[] memory tokens,\n        uint256[] memory amounts,\n        uint256 startDate,\n        uint256 endDate,\n        uint256 period,\n        uint256 optionPrice,\n        uint256 optionPremium,\n        uint256 optionInterval,\n        uint256 poolPeriod\n    ) public {\n        Proposal newProposal = new Proposal(\n            admin,\n            proposer,\n            tokens,\n            amounts,\n            startDate,\n            endDate,\n            period,\n            optionPrice,\n            optionPremium,\n            optionInterval,\n            poolPeriod\n        );\n        deployedProposals.push(address(newProposal));\n    }\n\n    function getDeployedProposals() public view returns (address[] memory) {\n        return deployedProposals;\n    }\n}\n",
  "sourcePath": "/Users/jskeum/Study/endorfin-dapp/contracts/ProposalFactory.sol",
  "compiler": {
    "name": "solc",
    "version": "0.7.3+commit.9bfce1f6.Emscripten.clang"
  },
  "schemaVersion": "3.3.2",
  "updatedAt": "2020-12-09T14:31:51.011Z",
  "networkType": "ethereum",
  "devdoc": {
    "kind": "dev",
    "methods": {},
    "version": 1
  },
  "userdoc": {
    "kind": "user",
    "methods": {},
    "version": 1
  }
}